:020000040000FA
:100000000C9458000C9480000C9480000C94800098
:100010000C9480000C9480000C9480000C94800060
:100020000C9480000C9480000C9480000C94800050
:100030000C9480000C9480000C9480000C94800040
:100040000C94A4020C9480000C9414030C94EE0203
:100050000C9480000C9480000C9480000C94800020
:100060000C9446030C94800000000000250028003A
:100070002B00040404040404040402020202020229
:10008000030303030303010204081020408001025C
:1000900004081020010204081020000000080002DB
:1000A00001000003040700000000000000006104DC
:1000B00011241FBECFEFD8E0DEBFCDBF11E0A0E01E
:1000C000B1E0E2E5FAE002C005900D92AA32B10774
:1000D000D9F722E0AAE2B1E001C01D92A134B20733
:1000E000E1F710E0C8E5D0E004C02197FE010E94CE
:1000F0002105C735D107C9F70E948E040C94270546
:100100000C94000090E0FC01E656FF4F2491FC01A6
:10011000EA57FF4F3491FC01EE58FF4FE491EE2374
:10012000C9F0222339F0233001F1A8F4213019F16C
:10013000223029F1F0E0EE0FFF1FE859FF4FA591A3
:10014000B4918FB7F894EC91611126C030953E239D
:100150003C938FBF08952730A9F02830C9F0243090
:1001600049F7809180008F7D03C0809180008F7758
:1001700080938000DFCF84B58F7784BDDBCF84B5DB
:100180008F7DFBCF8091B0008F778093B000D2CF6E
:100190008091B0008F7DF9CF3E2BDACFAF92BF9226
:1001A000CF92DF92EF92FF920F931F93CF93DF9343
:1001B0006C017B018B01040F151FEB015E01AE1872
:1001C000BF08C017D10759F06991D601ED91FC9194
:1001D0000190F081E02DC6010995892B79F7C501C1
:1001E000DF91CF911F910F91FF90EF90DF90CF9013
:1001F000BF90AF900895FC01538D448D252F30E0C2
:10020000842F90E0821B930B541710F0CF96089523
:1002100001970895FC01918D828D981761F0A28D50
:10022000AE0FBF2FB11D5D968C91928D9F5F9F7316
:10023000928F90E008958FEF9FEF0895FC01918DCC
:10024000828D981731F0828DE80FF11D858D90E039
:1002500008958FEF9FEF0895FC01918D228D892FD6
:1002600090E0805C9F4F821B91098F7399270895BE
:1002700084EA91E00E942C0121E0892B09F420E01E
:10028000822F089580E090E0892B29F00E943801A8
:1002900081110C9400000895FC01A48DA80FB92FC2
:1002A000B11DA35ABF4F2C91848D90E001968F739E
:1002B0009927848FA689B7892C93A089B1898C91BD
:1002C000837080648C93938D848D981306C002880C
:1002D000F389E02D80818F7D80830895EF92FF92D6
:1002E0000F931F93CF93DF93EC0181E0888F9B8D59
:1002F0008C8D98131AC0E889F989808185FF15C013
:100300009FB7F894EE89FF896083E889F989808135
:100310008370806480839FBF81E090E0DF91CF9104
:100320001F910F91FF90EF900895F62E0B8D10E026
:100330000F5F1F4F0F731127E02E8C8D8E110CC095
:100340000FB607FCFACFE889F989808185FFF5CFE0
:10035000CE010E944C01F1CFEB8DEC0FFD2FF11D72
:10036000E35AFF4FF0829FB7F8940B8FEA89FB891D
:1003700080818062CFCFCF93DF93EC01888D88237B
:10038000B9F0AA89BB89E889F9898C9185FD03C0F8
:10039000808186FD0DC00FB607FCF7CF8C9185FFDD
:1003A000F2CF808185FFEDCFCE010E944C01E9CFD5
:1003B000DF91CF91089520915101260F3327331FEC
:1003C00021323105ECF420917501FC0190E080E0D0
:1003D000243069F082E00895A09151012191AC018F
:1003E0004F5C5E4FA40FB52FB11D2C93019686175D
:1003F00098F380915101680F6093510180E0089556
:1004000081E0089508958FEF9FEF08958FEF9FEF9C
:10041000089580912A0190E0919581959109089520
:10042000CF93DF93CB01EA01642F0E94DB01CE0161
:10043000DF91CF910895CF93DF931F92CDB7DEB7B1
:10044000698361E0CE0101960E94DB0181E090E0CA
:100450000F90DF91CF91089590E080E008951F9371
:10046000CF93DF9385ED8093BC0080912D01909117
:100470002E01A0912F01B09130010796A11DB11D51
:1004800023E0B695A795979587952A95D1F7209162
:10049000BC0024FD03C01092750152C040912D0193
:1004A00050912E0160912F0170913001452B462B08
:1004B000472B69F30097A105B10541F02AE22A957F
:1004C000F1F700C00197A109B109E1CF80912C019A
:1004D000C1E0C0932B01882399F1D091B80010910D
:1004E000BA008091BC008A7B8093BC0060E082E10E
:1004F0000E94820060E083E10E94820010927501F8
:10050000C09377011092760161E082E10E9482003F
:1005100061E083E10E9482008091B9008E7F809328
:10052000B9008091B9008D7F8093B90088E48093F1
:10053000B80085E48093BC001093BA00D093B80053
:10054000DF91CF911F9108951F920F920FB60F92D6
:1005500011242F933F938F939F93AF93BF938091D9
:10056000A0019091A101A091A201B091A3013091AD
:100570009F0123E0230F2D3758F50196A11DB11DD2
:1005800020939F018093A0019093A101A093A201C9
:10059000B093A30180919B0190919C01A0919D013A
:1005A000B0919E010196A11DB11D80939B01909376
:1005B0009C01A0939D01B0939E01BF91AF919F912B
:1005C0008F913F912F910F900FBE0F901F90189514
:1005D00026E8230F0296A11DB11DD2CF1F920F92C4
:1005E0000FB60F9211242F933F934F935F936F9306
:1005F0007F938F939F93AF93BF93EF93FF9384EA7F
:1006000091E00E944C01FF91EF91BF91AF919F91BA
:100610008F917F916F915F914F913F912F910F90AB
:100620000FBE0F901F9018951F920F920FB60F924A
:1006300011242F938F939F93EF93FF93E091B40135
:10064000F091B5018081E091BA01F091BB0182FD8A
:100650001BC090818091BD018F5F8F732091BE017F
:10066000821741F0E091BD01F0E0EC55FE4F958F0F
:100670008093BD01FF91EF919F918F912F910F90EA
:100680000FBE0F901F9018958081F4CF1F920F928C
:100690000FB60F9211242F933F934F935F936F9355
:1006A0007F938F939F93AF93BF93EF93FF9380912B
:1006B000B900887F803609F44AC0F0F5883209F421
:1006C000A5C018F5803109F499C0B8F4882309F45D
:1006D000F5C0883009F492C0FF91EF91BF91AF91BE
:1006E0009F918F917F916F915F914F913F912F914A
:1006F0000F900FBE0F901F901895883109F486C097
:10070000803251F78093740114C0803409F49BC087
:1007100040F48033B9F38833F9F68093740185ECA3
:10072000AEC0803509F483C0883509F494C088349C
:1007300099F60E942F02D0CF883909F48AC038F583
:10074000883729F050F4883611F0803729F683E095
:10075000809375011092730155C0883809F479C0EF
:10076000803919F0803809F0B7CF80917301803259
:1007700008F06FC0E091730181E08E0F80937301E8
:100780008091BB00F0E0ED5AFE4F80833BC0803B80
:1007900039F0D0F4803A09F477C0883A09F09CCF58
:1007A00084E0809375011092520110925101F0E0A3
:1007B000E0E009958091510181110FC081E08093A3
:1007C00051011092310109C0803C09F4A8CF883C46
:1007D00009F4A5CF883B09F07FCFE091520181E079
:1007E0008E0F80935201F0E0EF5CFE4F808180938A
:1007F000BB00909152018091510129C080919A01D2
:100800008093BB0085EC8093BC0066CF90919901EA
:1008100080919801981758F5E091990181E08E0F29
:1008200080939901F0E0E858FE4F8081E9CFE09194
:10083000990181E08E0F809399018091BB00F0E0D7
:10084000E858FE4F80839091990180919801981704
:10085000C8F285E8D8CFE091990181E08E0F8093AE
:1008600099018091BB00F0E0E858FE4F80838091B1
:10087000770181115ECF81E08093760184EA8093D5
:10088000BC001092750128CF85EC8093BC001092BB
:10089000750180917301803230F4E0917301F0E0D2
:1008A000ED5AFE4F10826091730170E083E591E094
:1008B000F0E0E0E00995109273010ECF1092740100
:1008C00038CFE4EAF1E01382128288EE93E0A0E0F0
:1008D000B0E084839583A683B78384E091E091831D
:1008E000808385EC90E09587848784EC90E09787FF
:1008F000868780EC90E0918B808B81EC90E0938BED
:10090000828B82EC90E0958B848B86EC90E0978BC9
:10091000868B118E128E138E148E0895789484B562
:10092000826084BD84B5816084BD85B5826085BDEB
:1009300085B5816085BD80916E00816080936E0079
:10094000109281008091810082608093810080916B
:10095000810081608093810080918000816080931C
:1009600080008091B10084608093B1008091B000DC
:1009700081608093B00080917A00846080937A00D7
:1009800080917A00826080937A0080917A00816001
:1009900080937A0080917A00806880937A00109228
:1009A000C100E091B401F091B50182E08083E09153
:1009B000B001F091B1011082E091B201F091B30168
:1009C0008FEC80831092BC01E091B801F091B901E5
:1009D00086E08083E091B601F091B701808180616B
:1009E0008083E091B601F091B701808188608083B7
:1009F000E091B601F091B701808180688083E09139
:100A0000B601F091B70180818F7D808344E150E091
:100A100062E171E084EA91E00E94CE0042E050E0A1
:100A200067E271E084EA91E00E94CE00C0E0D0E08D
:100A30002097F1F30E9438018823D1F30E9400002F
:100A4000F7CFEE0FFF1F0590F491E02D0994F89475
:100A5000FFCF000000006E01CE00FB00BB012C01A7
:100A60000A011E013136206368616E6E656C20508C
:0C0A7000574D207465737421000D0A00BE
:107E0000112484B714BE81FFF0D085E080938100F7
:107E100082E08093C00088E18093C10086E0809377
:107E2000C20080E18093C4008EE0C9D0259A86E02C
:107E300020E33CEF91E0309385002093840096BBD3
:107E4000B09BFECF1D9AA8958150A9F7CC24DD24C4
:107E500088248394B5E0AB2EA1E19A2EF3E0BF2EE7
:107E6000A2D0813461F49FD0082FAFD0023811F036
:107E7000013811F484E001C083E08DD089C08234E0
:107E800011F484E103C0853419F485E0A6D080C0E4
:107E9000853579F488D0E82EFF2485D0082F10E0AE
:107EA000102F00270E291F29000F111F8ED06801E7
:107EB0006FC0863521F484E090D080E0DECF843638
:107EC00009F040C070D06FD0082F6DD080E0C81688
:107ED00080E7D80618F4F601B7BEE895C0E0D1E017
:107EE00062D089930C17E1F7F0E0CF16F0E7DF06D8
:107EF00018F0F601B7BEE89568D007B600FCFDCFD4
:107F0000A601A0E0B1E02C9130E011968C91119780
:107F100090E0982F8827822B932B1296FA010C0160
:107F200087BEE89511244E5F5F4FF1E0A038BF0790
:107F300051F7F601A7BEE89507B600FCFDCF97BE46
:107F4000E89526C08437B1F42ED02DD0F82E2BD052
:107F50003CD0F601EF2C8F010F5F1F4F84911BD097
:107F6000EA94F801C1F70894C11CD11CFA94CF0C13
:107F7000D11C0EC0853739F428D08EE10CD085E9AC
:107F80000AD08FE07ACF813511F488E018D01DD067
:107F900080E101D065CF982F8091C00085FFFCCF94
:107FA0009093C60008958091C00087FFFCCF809118
:107FB000C00084FD01C0A8958091C6000895E0E648
:107FC000F0E098E1908380830895EDDF803219F02E
:107FD00088E0F5DFFFCF84E1DECF1F93182FE3DFCA
:107FE0001150E9F7F2DF1F91089580E0E8DFEE27F6
:047FF000FF270994CA
:027FFE00040479
:00000001FF
