:100000000C9458000C9480000C9480000C94800098
:100010000C9480000C9480000C9480000C94800060
:100020000C9480000C9480000C9480000C94800050
:100030000C9480000C9480000C9480000C94800040
:100040000C9489060C9480000C94F9060C94D30649
:100050000C9480000C9480000C9480000C94800020
:100060000C942B070C948000000000002500280051
:100070002B00040404040404040402020202020229
:10008000030303030303010204081020408001025C
:1000900004081020010204081020000000080002DB
:1000A00001000003040700000000000000004A08EF
:1000B00011241FBECFEFD8E0DEBFCDBF11E0A0E01E
:1000C000B1E0ECE6FAE102C005900D92A234B1076E
:1000D000D9F722E0A2E4B1E001C01D92AB3BB20728
:1000E000E1F710E0C8E5D0E004C02197FE010E94CE
:1000F000090CC735D107C9F70E948F080C94340D3D
:100100000C94000090E0FC01E656FF4F2491FC01A6
:10011000EA57FF4F3491FC01EE58FF4FE491EE2374
:10012000C9F0222339F0233001F1A8F4213019F16C
:10013000223029F1F0E0EE0FFF1FE859FF4FA591A3
:10014000B4918FB7F894EC91611126C030953E239D
:100150003C938FBF08952730A9F02830C9F0243090
:1001600049F7809180008F7D03C0809180008F7758
:1001700080938000DFCF84B58F7784BDDBCF84B5DB
:100180008F7DFBCF8091B0008F778093B000D2CF6E
:100190008091B0008F7DF9CF3E2BDACF3FB7F89436
:1001A00080918F0190919001A0919101B091920165
:1001B00026B5A89B05C02F3F19F00196A11DB11DC2
:1001C0003FBFBA2FA92F982F8827BC01CD01620FFE
:1001D000711D811D911D42E0660F771F881F991FB9
:1001E0004A95D1F708958F929F92AF92BF92CF9286
:1001F000DF92EF92FF924B015C010E94CE006B01F7
:100200007C010E94CE006C197D098E099F09683E11
:10021000734081059105A8F321E0821A9108A10895
:10022000B10888EEC80E83E0D81EE11CF11C8114D1
:100230009104A104B10429F7FF90EF90DF90CF90D3
:10024000BF90AF909F908F90089508950895AF92BA
:10025000BF92CF92DF92EF92FF920F931F93CF93B3
:10026000DF936C017B018B01040F151FEB015E0115
:10027000AE18BF08C017D10759F06991D601ED91AA
:10028000FC910190F081E02DC6010995892B79F749
:10029000C501DF91CF911F910F91FF90EF90DF90FB
:1002A000CF90BF90AF900895FC01538D448D252FC2
:1002B00030E0842F90E0821B930B541710F0CF9600
:1002C000089501970895FC01918D828D981761F032
:1002D000A28DAE0FBF2FB11D5D968C91928D9F5F49
:1002E0009F73928F90E008958FEF9FEF0895FC0128
:1002F000918D828D981731F0828DE80FF11D858DDB
:1003000090E008958FEF9FEF0895FC01918D228D6D
:10031000892F90E0805C9F4F821B91098F739927F2
:10032000089585E092E00E94850121E0892B09F47F
:1003300020E0822F089580E090E0892B29F00E9430
:10034000910181110C9400000895FC01A48DA80F67
:10035000B92FB11DA35ABF4F2C91848D90E0019607
:100360008F739927848FA689B7892C93A089B18927
:100370008C91837080648C93938D848D981306C0C8
:100380000288F389E02D80818F7D80830895EF922C
:10039000FF920F931F93CF93DF93EC0181E0888F3F
:1003A0009B8D8C8D98131AC0E889F989808185FF0F
:1003B00015C09FB7F894EE89FF896083E889F989B1
:1003C00080818370806480839FBF81E090E0DF91B3
:1003D000CF911F910F91FF90EF900895F62E0B8D06
:1003E00010E00F5F1F4F0F731127E02E8C8D8E11C1
:1003F0000CC00FB607FCFACFE889F989808185FF28
:10040000F5CFCE010E94A501F1CFEB8DEC0FFD2FB2
:10041000F11DE35AFF4FF0829FB7F8940B8FEA89E2
:10042000FB8980818062CFCFCF93DF93EC01888DF1
:100430008823B9F0AA89BB89E889F9898C9185FD5F
:1004400003C0808186FD0DC00FB607FCF7CF8C91ED
:1004500085FFF2CF808185FFEDCFCE010E94A501FF
:10046000E9CFDF91CF91089520916301260F3327C3
:10047000331F21323105ECF42091DB01FC0190E0C7
:1004800080E0243069F082E00895A0916301219119
:10049000AC014D5B5E4FA40FB52FB11D2C9301969F
:1004A000861798F380916301680F6093630180E081
:1004B000089581E008951092DB0181E08093DA01D4
:1004C0001092B50161E082E10E94820061E083E167
:1004D0000E948200E9EBF0E080818E7F8083808142
:1004E0008D7F808388E48093B80085E48093BC008E
:1004F0000895CF93DF9391E0909342018823B9F060
:10050000C091B800D091BA008091BC008A7B8093E2
:10051000BC0060E082E10E94820060E083E10E9412
:1005200082000E945B02D093BA00C093B800DF91B2
:10053000CF9108958F929F92AF92BF92CF92DF9208
:10054000EF92FF920F931F93CF93DF93D09104020A
:10055000D13208F0D7C0182FC09103020E94CE00FC
:100560006B017C018091DB0181116BC082E0809383
:10057000DB011093DA018FEF8093D9011092D8013B
:10058000D093D701A3EEB1E0E7EBF1E080E0D81320
:1005900091C01092B6018091B601CC0FC82BC093C8
:1005A000B6018091B501813009F088C01092B50183
:1005B0000E94CE006B017C018091B6018093BB004C
:1005C0008091DD019091DE01A091DF01B091E00109
:1005D000892B8A2B8B2BA1F00E94CE000091DD018C
:1005E0001091DE012091DF013091E0016C197D094D
:1005F0008E099F09061717072807390708F442C014
:100600008091BC0083FDD8CF85EC8093BC000E9414
:10061000CE006B017C018091DB01823009F450C077
:100620008091D9018F3F09F46FC08091D901803248
:1006300009F46CC08091D901803309F469C084E069
:1006400026C08091DD019091DE01A091DF01B09183
:10065000E001892B8A2B8B2B09F484CF0E94CE00DA
:100660008090DD019090DE01A090DF01B090E0016C
:100670006C197D098E099F0986169706A806B9068A
:1006800008F070CF8091DC010E94790285E0109221
:10069000E201109204021092E101DF91CF911F91CB
:1006A0000F91FF90EF90DF90CF90BF90AF909F9011
:1006B0008F9008959D9191938F5F69CF85EEA5CF1F
:1006C0008091DD019091DE01A091DF01B091E00108
:1006D000892B8A2B8B2B09F49ECF0E94CE00009190
:1006E000DD011091DE012091DF013091E0016C19F4
:1006F0007D098E099F09061717072807390708F093
:100700008ACFC0CF81E0C3CF80E0C1CF82E0BFCF2E
:1007100083E0BDCF1F93CF93DF93EA01122FDC015B
:1007200011968D919C91DC01ED91FC910280F381F9
:10073000E02D0995C817D90729F4812F0E949A0244
:1007400091E0811190E0892FDF91CF911F91089561
:10075000CF93DF93EC018B818823A1F0888191E016
:100760009093E101809303021092E201109204023F
:1007700081E00E949A0291E0811190E0892FDF913F
:10078000CF91089510929401109293011092E2017A
:10079000109204020E945B0285E291E0909387012F
:1007A0008093860186E291E090938901809388018D
:1007B00081E08B83CE010E94A803982F8111CECFB8
:1007C000DDCF0895E091940180919301E81730F412
:1007D000F0E0EB56FE4F808190E008958FEF9FEFA1
:1007E000089590919401809193012FEF3FEF981716
:1007F00048F4E92FF0E0EB56FE4F208130E09F5F98
:1008000090939401C901089580919301909194016E
:10081000891B990B0895CF92DF92EF92FF920F936D
:100820001F93CF93DF937C01CB018A012091E101DB
:10083000222389F0EB016B01C40ED51ECC15DD051A
:1008400069F06991D701ED91FC910190F081E02D63
:10085000C7010995F3CF642F0E943402C801DF91CC
:10086000CF911F910F91FF90EF90DF90CF9008955F
:10087000CF93DF931F92CDB7DEB769832091E1015B
:100880002223F9F020910402203258F021E030E0D8
:10089000FC013383228390E080E00F90DF91CF91C1
:1008A00008958091E201E82FF0E0ED51FE4F99812B
:1008B00090838F5F8093E2018093040281E090E057
:1008C000ECCF61E0CE0101960E943402F7CF90E0B8
:1008D00080E00895CF93DF9300D0CDB7DEB7898352
:1008E0006A838091B1029091B202FC01248135812A
:1008F0002230310590F0208131E03093E1012093E6
:1009000003021092E2011092040221E042E050E062
:10091000BE016F5F7F4F0E948A030F900F90DF919F
:10092000CF9108952F923F924F925F926F927F9254
:100930008F929F92AF92BF92CF92DF92EF92FF92EF
:100940000F931F93CF93DF931F92CDB7DEB76B0149
:100950007C0120E030E040E85FE30E943F0A87FD31
:10096000ECC020E030EC4AE555E4C701B6010E9436
:10097000970B18160CF4E8C06091B3027091B402A2
:100980008091B5029091B6020E94E50A4B015C018C
:1009900020E030E040E855E4C701B6010E949C0B1E
:1009A0009B01AC01C501B4010E94440A20E030E083
:1009B00040E05FE30E94D30920E030E040E85FE3DD
:1009C0000E94D2096B017C0120E030E040E450E459
:1009D0000E943F0A87FDC0C020E030E04FE753E4AB
:1009E000C701B6010E94970B18160CF4BBC0C701D3
:1009F000B6010E94B60A962E1982E090B102F090DC
:100A0000B202D70114968D919C911597892B09F408
:100A10001AC18C9191E09093E101809303021092AE
:100A2000E2011092040220E041E050E0BE016F5F5D
:100A30007F4FC7010E948A03882309F404C18824D8
:100A4000839485EC382EF701C480D58001E0C11471
:100A5000D10409F400E0A02EB12CD7012C900E9403
:100A6000CE002B013C018091DB01811182C0102F4F
:100A70008092DB010093DA01BFEFB093D9011092AD
:100A8000D8018FEF800F8093D7018092B6018091BB
:100A9000B601220C282A2092B6018091B50181303E
:100AA00009F0A8C01092B5010E94CE002B013C01B4
:100AB0008091B6018093BB008091DD019091DE01B1
:100AC000A091DF01B091E001892B8A2B8B2BA1F043
:100AD0000E94CE002091DD013091DE014091DF01C6
:100AE0005091E0016419750986099709261737079F
:100AF0004807590708F45EC08091BC0083FDD8CF39
:100B00003092BC000E94CE002B013C018091DB01A1
:100B1000813009F473C08091D801801710F41091CE
:100B2000D801E7EBF1E0A5E9B1E080E0811709F435
:100B300046C091919D938F5FF9CFC12CD12C40E895
:100B4000E42E4FE3F42E18CFC12C30ECD32E3AE52F
:100B5000E32E35E4F32E10CFC12CD12C20E4E22E6D
:100B6000FE2C45CFC12CD12C9FE7E92E93E4F92E22
:100B70003ECF8091DD019091DE01A091DF01B09127
:100B8000E001892B8A2B8B2B09F46DCF0E94CE00BC
:100B90002091DD013091DE014091DF015091E001B3
:100BA00064197509860997092617370748075907F1
:100BB00008F059CF8091DC010E94790210E0109278
:100BC0009401109393011A151B04E9F590E080E05D
:100BD0008A159B05A8F5D70111968D919C91DC0192
:100BE000ED91FC910284F385E02D0995898381E0E4
:100BF00090E0EECFE5EEE093BC0084CF8091DD0184
:100C00009091DE01A091DF01B091E001892B8A2B48
:100C10008B2B09F47BCF0E94CE002091DD01309117
:100C2000DE014091DF015091E001641975098609E8
:100C30009709261737074807590708F067CFBACF33
:100C4000CD2809F400CF1981612F6F76606180E0B3
:100C50000E946A04692D8EEF0E946A04612F80E071
:100C60000E946A0465E070E080E090E00E94F3007A
:100C7000612F606A80E00E946A040F90DF91CF913B
:100C80001F910F91FF90EF90DF90CF90BF90AF90AA
:100C90009F908F907F906F905F904F903F902F909C
:100CA000089585ED8093BC008091DD019091DE0177
:100CB000A091DF01B091E0010796A11DB11D23E0D5
:100CC000B695A795979587952A95D1F72091BC0061
:100CD00024FD03C01092DB0108954091DD01509185
:100CE000DE016091DF017091E001452B462B472B1F
:100CF00069F30097A105B10541F02AE22A95F1F7C1
:100D000000C00197A109B109E1CF8091DC010C94E9
:100D100079021F920F920FB60F9211242F933F93D7
:100D20008F939F93AF93BF9380918B0190918C0190
:100D3000A0918D01B0918E0130918A0123E0230FA3
:100D40002D3758F50196A11DB11D20938A0180937E
:100D50008B0190938C01A0938D01B0938E018091B3
:100D60008F0190919001A0919101B0919201019613
:100D7000A11DB11D80938F0190939001A0939101CB
:100D8000B0939201BF91AF919F918F913F912F911D
:100D90000F900FBE0F901F90189526E8230F029614
:100DA000A11DB11DD2CF1F920F920FB60F92112429
:100DB0002F933F934F935F936F937F938F939F9363
:100DC000AF93BF93EF93FF9385E092E00E94A5015C
:100DD000FF91EF91BF91AF919F918F917F916F9113
:100DE0005F914F913F912F910F900FBE0F901F90E9
:100DF00018951F920F920FB60F9211242F938F9375
:100E00009F93EF93FF93E0911502F091160280817A
:100E1000E0911B02F0911C0282FD1BC09081809129
:100E20001E028F5F8F7320911F02821741F0E091A5
:100E30001E02F0E0EB5FFD4F958F80931E02FF9145
:100E4000EF919F918F912F910F900FBE0F901F9058
:100E500018958081F4CF1F920F920FB60F92112434
:100E60002F933F934F935F936F937F938F939F93B2
:100E7000AF93BF93EF93FF938091B900887F803643
:100E800009F44AC0F0F5883209F4A7C018F580319A
:100E900009F49BC0B8F4882309F4F9C0883009F438
:100EA00094C0FF91EF91BF91AF919F918F917F91EE
:100EB0006F915F914F913F912F910F900FBE0F90C7
:100EC0001F901895883109F488C0803251F78093BB
:100ED000D90114C0803409F49DC040F48033B9F3C3
:100EE0008833F9F68093D90185ECB0C0803509F4D8
:100EF00085C0883509F496C0883499F60E94510659
:100F0000D0CF883909F48CC038F5883729F050F4EF
:100F1000883611F0803729F683E08093DB01109248
:100F2000850157C0883809F47BC0803919F08038B2
:100F300009F0B7CF80918501803208F071C0E0914F
:100F4000850181E08E0F809385018091BB00F0E0E8
:100F5000EB59FE4F80833DC0803B39F0E0F4803A8E
:100F600009F479C0883A09F09CCF84E08093DB01D2
:100F70001092640110926301E0918601F091870163
:100F800009958091630181110FC081E08093630115
:100F90001092430109C0803C09F4A6CF883C09F4B3
:100FA000A3CF883B09F07DCFE091640181E08E0FF3
:100FB00080936401F0E0ED5BFE4F80818093BB0085
:100FC000909164018091630129C08091B601809362
:100FD000BB0085EC8093BC0064CF9091D8018091D8
:100FE000D701981758F5E091D80181E08E0F8093D2
:100FF000D801F0E0E954FE4F8081E9CFE091D801BB
:1010000081E08E0F8093D8018091BB00F0E0E9541D
:10101000FE4F80839091D8018091D7019817C8F234
:1010200085E8D8CFE091D80181E08E0F8093D80178
:101030008091BB00F0E0E954FE4F80838091DA019B
:1010400081115CCF81E08093B50184EA8093BC007C
:101050001092DB0126CF85EC8093BC001092DB015F
:1010600080918501803230F4E0918501F0E0EB5908
:10107000FE4F10826091850170E0E0918801F0914F
:10108000890185E691E00995109285010ACF1092B9
:10109000D90134CFE5E0F2E01382128288EE93E0CA
:1010A000A0E0B0E084839583A683B7832AE031E093
:1010B0003183208325EC30E03587248724EC30E031
:1010C0003787268720EC30E0318B208B21EC30E015
:1010D000338B228B22EC30E0358B248B26EC30E0F6
:1010E000378B268B118E128E138E148EE2EAF2E06D
:1010F0001382128284839583A683B7838CE191E067
:1011000091838083AEEAB2E080E48C931296FC93E4
:10111000EE93119714961C921E9213970895CF93F5
:10112000DF9300D000D01F92CDB7DEB7789484B59E
:10113000826084BD84B5816084BD85B5826085BDD3
:1011400085B5816085BD80916E00816080936E0061
:101150001092810080918100826080938100809153
:101160008100816080938100809180008160809304
:1011700080008091B10084608093B1008091B000C4
:1011800081608093B00080917A00846080937A00BF
:1011900080917A00826080937A0080917A008160E9
:1011A00080937A0080917A00806880937A00109210
:1011B000C100E0911502F091160282E08083E09177
:1011C0001102F09112021082E0911302F0911402C8
:1011D0008FEC808310921D02E0911902F0911A02A7
:1011E00086E08083E0911702F0911802808180618F
:1011F0008083E0911702F0911802808188608083DB
:10120000E0911702F0911802808180688083E0915C
:101210001702F091180280818F7D808344E150E0B5
:101220006AE271E085E092E00E94270142E050E02E
:101230006FE371E085E092E00E9427018091B102A6
:101240009091B202009711F00E94AB0C86E090E002
:101250000E940F0C8C018091AF029091B0022091FE
:10126000AE02F801208392838183138280E290E0B2
:10127000958384831093B2020093B102109294017B
:10128000109293011092E201109204020E945B02FC
:1012900085E291E0909387018093860186E291E058
:1012A000909389018093880181E0F8018383C801CC
:1012B0000E94A8038823E1F060E880E00E946A04AD
:1012C0006AE070E080E090E00E94F30080E498E73C
:1012D000ADE7B1E08093B3029093B402A093B5025E
:1012E000B093B60260E070E08AE794E40E94920452
:1012F00080EC9CEFABE9B1E08093B3029093B40231
:10130000A093B502B093B60260E070E088EC94E47C
:101310000E9492048CE08093B80020E0A22E20E08E
:10132000B22EEE24E39410E000E0680196E0F92E7E
:10133000F9821A821B820C838D2D99278F70992731
:101340008D838091B1029091B202FC01248135819C
:101350002530310588F02081E092E10120930302DD
:101360001092E2011092040221E045E050E0BE013B
:101370006F5F7F4F0E948A03D39484E0F80EE6E407
:10138000FE12D6CF085F1F4F0115F0E11F0769F667
:10139000A114B10441F20E949101882321F20E941C
:1013A0000000C1CF5058BB27AA270E94EA090C941D
:1013B0005D0B0E944F0B38F00E94560B20F039F461
:1013C0009F3F19F426F40C944C0B0EF4E095E7FBC8
:1013D0000C94460BE92F0E946E0B58F3BA17620764
:1013E00073078407950720F079F4A6F50C94900B09
:1013F0000EF4E0950B2EBA2FA02D0B01B901900130
:101400000C01CA01A0011124FF27591B99F0593F73
:1014100050F4503E68F11A16F040A22F232F342FBB
:101420004427585FF3CF469537952795A795F04009
:101430005395C9F77EF41F16BA0B620B730B840B1E
:10144000BAF09150A1F0FF0FBB1F661F771F881FD6
:10145000C2F70EC0BA0F621F731F841F48F487952E
:1014600077956795B795F7959E3F08F0B0CF939520
:10147000880F08F09927EE0F9795879508950E9499
:10148000220B08F481E008950E94580A0C945D0B29
:101490000E94560B58F00E944F0B40F029F45F3F1A
:1014A00029F00C94460B51110C94910B0C944C0B9D
:1014B0000E946E0B68F39923B1F3552391F3951BAA
:1014C000550BBB27AA2762177307840738F09F5F65
:1014D0005F4F220F331F441FAA1FA9F335D00E2ED2
:1014E0003AF0E0E832D091505040E695001CCAF73F
:1014F0002BD0FE2F29D0660F771F881FBB1F261702
:1015000037074807AB07B0E809F0BB0B802DBF01D8
:10151000FF2793585F4F3AF09E3F510578F00C94A7
:10152000460B0C94910B5F3FE4F3983ED4F3869501
:1015300077956795B795F7959F5FC9F7880F911DC8
:101540009695879597F90895E1E0660F771F881FB4
:10155000BB1F621773078407BA0720F0621B730B67
:10156000840BBA0BEE1F88F7E09508950E94760B66
:1015700088F09F5798F0B92F9927B751B0F0E1F054
:10158000660F771F881F991F1AF0BA95C9F714C004
:10159000B13091F00E94900BB1E008950C94900B43
:1015A000672F782F8827B85F39F0B93FCCF386953D
:1015B00077956795B395D9F73EF49095809570959A
:1015C00061957F4F8F4F9F4F0895E89409C097FB17
:1015D0003EF490958095709561957F4F8F4F9F4F0A
:1015E0009923A9F0F92F96E9BB279395F69587954E
:1015F00077956795B795F111F8CFFAF4BB0F11F411
:1016000060FF1BC06F5F7F4F8F4F9F4F16C08823B7
:1016100011F096E911C0772321F09EE8872F762FED
:1016200005C0662371F096E8862F70E060E02AF02E
:101630009A95660F771F881FDAF7880F969587951A
:1016400097F90895990F0008550FAA0BE0E8FEEFEF
:1016500016161706E807F907C0F012161306E40776
:10166000F50798F0621B730B840B950B39F40A266F
:1016700061F0232B242B252B21F408950A2609F44D
:10168000A140A6958FEF811D811D089597F99F6751
:1016900080E870E060E008959FEF80EC08950024FA
:1016A0000A941616170618060906089500240A94C7
:1016B00012161306140605060895092E0394000C4D
:1016C00011F4882352F0BB0F40F4BF2B11F460FFDC
:1016D00004C06F5F7F4F8F4F9F4F089557FD905805
:1016E000440F551F59F05F3F71F04795880F97FBE6
:1016F000991F61F09F3F79F08795089512161306A0
:101700001406551FF2CF4695F1DF08C016161706CE
:101710001806991FF1CF8695710561050894089503
:10172000E894BB2766277727CB0197F908950E9495
:10173000220B08F48FEF08950E94AF0B0C945D0B01
:101740000E944F0B38F00E94560B20F0952311F0A9
:101750000C94460B0C944C0B11240C94910B0E948E
:101760006E0B70F3959FC1F3950F50E0551F629F6C
:10177000F001729FBB27F00DB11D639FAA27F00DEA
:10178000B11DAA1F649F6627B00DA11D661F829F11
:101790002227B00DA11D621F739FB00DA11D621FF6
:1017A000839FA00D611D221F749F3327A00D611D13
:1017B000231F849F600D211D822F762F6A2F1124F5
:1017C0009F5750409AF0F1F088234AF0EE0FFF1F28
:1017D000BB1F661F771F881F91505040A9F79E3F7F
:1017E000510580F00C94460B0C94910B5F3FE4F391
:1017F000983ED4F3869577956795B795F795E795D5
:101800009F5FC1F7FE2B880F911D9695879597F9DD
:101810000895EE0FFF1F0590F491E02D09940F93AA
:101820001F93CF93DF938230910510F482E090E014
:10183000E091B902F091BA0230E020E0B0E0A0E01F
:10184000309799F42115310509F44AC0281B390B4A
:1018500024303105D8F58A819B816115710589F1A4
:10186000FB0193838283FE0111C04081518102817B
:10187000138148175907E0F04817590799F4109752
:1018800061F012960C93129713961C933296CF0127
:10189000DF91CF911F910F9108950093B90210939A
:1018A000BA02F4CF2115310551F04217530738F031
:1018B000A901DB019A01BD01DF01F801C1CFEF01F0
:1018C000F9CF9093BA028093B902CDCFFE01E20F17
:1018D000F31F819391932250310939832883D7CF05
:1018E0002091B7023091B802232B41F420910201DC
:1018F000309103013093B8022093B7022091000188
:10190000309101012115310541F42DB73EB74091C9
:10191000040150910501241B350BE091B702F091B1
:10192000B802E217F307A0F42E1B3F0B2817390764
:1019300078F0AC014E5F5F4F2417350748F04E0F2B
:101940005F1F5093B8024093B702819391939FCF4A
:10195000F0E0E0E09CCFCF93DF930097E9F0FC014B
:10196000329713821282A091B902B091BA02ED01AE
:1019700030E020E01097A1F420813181820F931F85
:101980002091B7023091B8022817390709F061C0D9
:10199000F093B802E093B702DF91CF910895EA0186
:1019A000CE17DF07E8F54A815B819E01411551059D
:1019B000B1F7E901FB83EA8349915991C40FD51F1F
:1019C000EC17FD0761F4808191810296840F951FC9
:1019D000E90199838883828193819B838A83F0E0E4
:1019E000E0E012968D919C9113970097B9F52D9197
:1019F0003C911197CD010296820F931F2091B7025F
:101A00003091B8022817390739F6309751F51092FE
:101A1000BA021092B902B093B802A093B702BCCF39
:101A2000D383C28340815181840F951FC817D90782
:101A300061F44E5F5F4F88819981480F591F518330
:101A400040838A819B81938382832115310509F02C
:101A5000B0CFF093BA02E093B9029ECFFD01DC0152
:0C1A6000C0CF13821282D7CFF894FFCFC2
:101A6C000000BB02800000000000C70127015401E8
:101A7C0014028501630177010000000038040B0497
:101A8C006704E1030404F103E20331362063686167
:101A9C006E6E656C2050574D207465737421000D6B
:021AAC000A002E
:00000001FF
